{
  "address": "0xdCf5B18976cA5074b7702aAEf7b083E7c917ad4E",
  "abi": [
    {
      "inputs": [
        {
          "internalType": "contract IVotes",
          "name": "_token",
          "type": "address"
        }
      ],
      "stateMutability": "nonpayable",
      "type": "constructor"
    },
    {
      "inputs": [],
      "name": "CheckpointUnorderedInsertion",
      "type": "error"
    },
    {
      "inputs": [],
      "name": "FailedInnerCall",
      "type": "error"
    },
    {
      "inputs": [
        {
          "internalType": "address",
          "name": "voter",
          "type": "address"
        }
      ],
      "name": "GovernorAlreadyCastVote",
      "type": "error"
    },
    {
      "inputs": [
        {
          "internalType": "uint256",
          "name": "proposalId",
          "type": "uint256"
        }
      ],
      "name": "GovernorAlreadyQueuedProposal",
      "type": "error"
    },
    {
      "inputs": [],
      "name": "GovernorDisabledDeposit",
      "type": "error"
    },
    {
      "inputs": [
        {
          "internalType": "address",
          "name": "proposer",
          "type": "address"
        },
        {
          "internalType": "uint256",
          "name": "votes",
          "type": "uint256"
        },
        {
          "internalType": "uint256",
          "name": "threshold",
          "type": "uint256"
        }
      ],
      "name": "GovernorInsufficientProposerVotes",
      "type": "error"
    },
    {
      "inputs": [
        {
          "internalType": "uint256",
          "name": "targets",
          "type": "uint256"
        },
        {
          "internalType": "uint256",
          "name": "calldatas",
          "type": "uint256"
        },
        {
          "internalType": "uint256",
          "name": "values",
          "type": "uint256"
        }
      ],
      "name": "GovernorInvalidProposalLength",
      "type": "error"
    },
    {
      "inputs": [
        {
          "internalType": "uint256",
          "name": "quorumNumerator",
          "type": "uint256"
        },
        {
          "internalType": "uint256",
          "name": "quorumDenominator",
          "type": "uint256"
        }
      ],
      "name": "GovernorInvalidQuorumFraction",
      "type": "error"
    },
    {
      "inputs": [
        {
          "internalType": "address",
          "name": "voter",
          "type": "address"
        }
      ],
      "name": "GovernorInvalidSignature",
      "type": "error"
    },
    {
      "inputs": [],
      "name": "GovernorInvalidVoteType",
      "type": "error"
    },
    {
      "inputs": [
        {
          "internalType": "uint256",
          "name": "votingPeriod",
          "type": "uint256"
        }
      ],
      "name": "GovernorInvalidVotingPeriod",
      "type": "error"
    },
    {
      "inputs": [
        {
          "internalType": "uint256",
          "name": "proposalId",
          "type": "uint256"
        }
      ],
      "name": "GovernorNonexistentProposal",
      "type": "error"
    },
    {
      "inputs": [
        {
          "internalType": "uint256",
          "name": "proposalId",
          "type": "uint256"
        }
      ],
      "name": "GovernorNotQueuedProposal",
      "type": "error"
    },
    {
      "inputs": [
        {
          "internalType": "address",
          "name": "account",
          "type": "address"
        }
      ],
      "name": "GovernorOnlyExecutor",
      "type": "error"
    },
    {
      "inputs": [
        {
          "internalType": "address",
          "name": "account",
          "type": "address"
        }
      ],
      "name": "GovernorOnlyProposer",
      "type": "error"
    },
    {
      "inputs": [],
      "name": "GovernorQueueNotImplemented",
      "type": "error"
    },
    {
      "inputs": [
        {
          "internalType": "address",
          "name": "proposer",
          "type": "address"
        }
      ],
      "name": "GovernorRestrictedProposer",
      "type": "error"
    },
    {
      "inputs": [
        {
          "internalType": "uint256",
          "name": "proposalId",
          "type": "uint256"
        },
        {
          "internalType": "enum IGovernor.ProposalState",
          "name": "current",
          "type": "uint8"
        },
        {
          "internalType": "bytes32",
          "name": "expectedStates",
          "type": "bytes32"
        }
      ],
      "name": "GovernorUnexpectedProposalState",
      "type": "error"
    },
    {
      "inputs": [
        {
          "internalType": "address",
          "name": "account",
          "type": "address"
        },
        {
          "internalType": "uint256",
          "name": "currentNonce",
          "type": "uint256"
        }
      ],
      "name": "InvalidAccountNonce",
      "type": "error"
    },
    {
      "inputs": [],
      "name": "InvalidShortString",
      "type": "error"
    },
    {
      "inputs": [],
      "name": "QueueEmpty",
      "type": "error"
    },
    {
      "inputs": [],
      "name": "QueueFull",
      "type": "error"
    },
    {
      "inputs": [
        {
          "internalType": "uint8",
          "name": "bits",
          "type": "uint8"
        },
        {
          "internalType": "uint256",
          "name": "value",
          "type": "uint256"
        }
      ],
      "name": "SafeCastOverflowedUintDowncast",
      "type": "error"
    },
    {
      "inputs": [
        {
          "internalType": "string",
          "name": "str",
          "type": "string"
        }
      ],
      "name": "StringTooLong",
      "type": "error"
    },
    {
      "anonymous": false,
      "inputs": [],
      "name": "EIP712DomainChanged",
      "type": "event"
    },
    {
      "anonymous": false,
      "inputs": [
        {
          "indexed": false,
          "internalType": "uint256",
          "name": "proposalId",
          "type": "uint256"
        }
      ],
      "name": "ProposalCanceled",
      "type": "event"
    },
    {
      "anonymous": false,
      "inputs": [
        {
          "indexed": false,
          "internalType": "uint256",
          "name": "proposalId",
          "type": "uint256"
        },
        {
          "indexed": false,
          "internalType": "address",
          "name": "proposer",
          "type": "address"
        },
        {
          "indexed": false,
          "internalType": "address[]",
          "name": "targets",
          "type": "address[]"
        },
        {
          "indexed": false,
          "internalType": "uint256[]",
          "name": "values",
          "type": "uint256[]"
        },
        {
          "indexed": false,
          "internalType": "string[]",
          "name": "signatures",
          "type": "string[]"
        },
        {
          "indexed": false,
          "internalType": "bytes[]",
          "name": "calldatas",
          "type": "bytes[]"
        },
        {
          "indexed": false,
          "internalType": "uint256",
          "name": "voteStart",
          "type": "uint256"
        },
        {
          "indexed": false,
          "internalType": "uint256",
          "name": "voteEnd",
          "type": "uint256"
        },
        {
          "indexed": false,
          "internalType": "string",
          "name": "description",
          "type": "string"
        }
      ],
      "name": "ProposalCreated",
      "type": "event"
    },
    {
      "anonymous": false,
      "inputs": [
        {
          "indexed": false,
          "internalType": "uint256",
          "name": "proposalId",
          "type": "uint256"
        }
      ],
      "name": "ProposalExecuted",
      "type": "event"
    },
    {
      "anonymous": false,
      "inputs": [
        {
          "indexed": false,
          "internalType": "uint256",
          "name": "proposalId",
          "type": "uint256"
        },
        {
          "indexed": false,
          "internalType": "uint256",
          "name": "etaSeconds",
          "type": "uint256"
        }
      ],
      "name": "ProposalQueued",
      "type": "event"
    },
    {
      "anonymous": false,
      "inputs": [
        {
          "indexed": false,
          "internalType": "uint256",
          "name": "oldQuorumNumerator",
          "type": "uint256"
        },
        {
          "indexed": false,
          "internalType": "uint256",
          "name": "newQuorumNumerator",
          "type": "uint256"
        }
      ],
      "name": "QuorumNumeratorUpdated",
      "type": "event"
    },
    {
      "anonymous": false,
      "inputs": [
        {
          "indexed": true,
          "internalType": "address",
          "name": "voter",
          "type": "address"
        },
        {
          "indexed": false,
          "internalType": "uint256",
          "name": "proposalId",
          "type": "uint256"
        },
        {
          "indexed": false,
          "internalType": "uint8",
          "name": "support",
          "type": "uint8"
        },
        {
          "indexed": false,
          "internalType": "uint256",
          "name": "weight",
          "type": "uint256"
        },
        {
          "indexed": false,
          "internalType": "string",
          "name": "reason",
          "type": "string"
        }
      ],
      "name": "VoteCast",
      "type": "event"
    },
    {
      "anonymous": false,
      "inputs": [
        {
          "indexed": true,
          "internalType": "address",
          "name": "voter",
          "type": "address"
        },
        {
          "indexed": false,
          "internalType": "uint256",
          "name": "proposalId",
          "type": "uint256"
        },
        {
          "indexed": false,
          "internalType": "uint8",
          "name": "support",
          "type": "uint8"
        },
        {
          "indexed": false,
          "internalType": "uint256",
          "name": "weight",
          "type": "uint256"
        },
        {
          "indexed": false,
          "internalType": "string",
          "name": "reason",
          "type": "string"
        },
        {
          "indexed": false,
          "internalType": "bytes",
          "name": "params",
          "type": "bytes"
        }
      ],
      "name": "VoteCastWithParams",
      "type": "event"
    },
    {
      "inputs": [],
      "name": "BALLOT_TYPEHASH",
      "outputs": [
        {
          "internalType": "bytes32",
          "name": "",
          "type": "bytes32"
        }
      ],
      "stateMutability": "view",
      "type": "function"
    },
    {
      "inputs": [],
      "name": "CLOCK_MODE",
      "outputs": [
        {
          "internalType": "string",
          "name": "",
          "type": "string"
        }
      ],
      "stateMutability": "view",
      "type": "function"
    },
    {
      "inputs": [],
      "name": "COUNTING_MODE",
      "outputs": [
        {
          "internalType": "string",
          "name": "",
          "type": "string"
        }
      ],
      "stateMutability": "pure",
      "type": "function"
    },
    {
      "inputs": [],
      "name": "EXTENDED_BALLOT_TYPEHASH",
      "outputs": [
        {
          "internalType": "bytes32",
          "name": "",
          "type": "bytes32"
        }
      ],
      "stateMutability": "view",
      "type": "function"
    },
    {
      "inputs": [
        {
          "internalType": "address[]",
          "name": "targets",
          "type": "address[]"
        },
        {
          "internalType": "uint256[]",
          "name": "values",
          "type": "uint256[]"
        },
        {
          "internalType": "bytes[]",
          "name": "calldatas",
          "type": "bytes[]"
        },
        {
          "internalType": "bytes32",
          "name": "descriptionHash",
          "type": "bytes32"
        }
      ],
      "name": "cancel",
      "outputs": [
        {
          "internalType": "uint256",
          "name": "",
          "type": "uint256"
        }
      ],
      "stateMutability": "nonpayable",
      "type": "function"
    },
    {
      "inputs": [
        {
          "internalType": "uint256",
          "name": "proposalId",
          "type": "uint256"
        },
        {
          "internalType": "uint8",
          "name": "support",
          "type": "uint8"
        }
      ],
      "name": "castVote",
      "outputs": [
        {
          "internalType": "uint256",
          "name": "",
          "type": "uint256"
        }
      ],
      "stateMutability": "nonpayable",
      "type": "function"
    },
    {
      "inputs": [
        {
          "internalType": "uint256",
          "name": "proposalId",
          "type": "uint256"
        },
        {
          "internalType": "uint8",
          "name": "support",
          "type": "uint8"
        },
        {
          "internalType": "address",
          "name": "voter",
          "type": "address"
        },
        {
          "internalType": "bytes",
          "name": "signature",
          "type": "bytes"
        }
      ],
      "name": "castVoteBySig",
      "outputs": [
        {
          "internalType": "uint256",
          "name": "",
          "type": "uint256"
        }
      ],
      "stateMutability": "nonpayable",
      "type": "function"
    },
    {
      "inputs": [
        {
          "internalType": "uint256",
          "name": "proposalId",
          "type": "uint256"
        },
        {
          "internalType": "uint8",
          "name": "support",
          "type": "uint8"
        },
        {
          "internalType": "string",
          "name": "reason",
          "type": "string"
        }
      ],
      "name": "castVoteWithReason",
      "outputs": [
        {
          "internalType": "uint256",
          "name": "",
          "type": "uint256"
        }
      ],
      "stateMutability": "nonpayable",
      "type": "function"
    },
    {
      "inputs": [
        {
          "internalType": "uint256",
          "name": "proposalId",
          "type": "uint256"
        },
        {
          "internalType": "uint8",
          "name": "support",
          "type": "uint8"
        },
        {
          "internalType": "string",
          "name": "reason",
          "type": "string"
        },
        {
          "internalType": "bytes",
          "name": "params",
          "type": "bytes"
        }
      ],
      "name": "castVoteWithReasonAndParams",
      "outputs": [
        {
          "internalType": "uint256",
          "name": "",
          "type": "uint256"
        }
      ],
      "stateMutability": "nonpayable",
      "type": "function"
    },
    {
      "inputs": [
        {
          "internalType": "uint256",
          "name": "proposalId",
          "type": "uint256"
        },
        {
          "internalType": "uint8",
          "name": "support",
          "type": "uint8"
        },
        {
          "internalType": "address",
          "name": "voter",
          "type": "address"
        },
        {
          "internalType": "string",
          "name": "reason",
          "type": "string"
        },
        {
          "internalType": "bytes",
          "name": "params",
          "type": "bytes"
        },
        {
          "internalType": "bytes",
          "name": "signature",
          "type": "bytes"
        }
      ],
      "name": "castVoteWithReasonAndParamsBySig",
      "outputs": [
        {
          "internalType": "uint256",
          "name": "",
          "type": "uint256"
        }
      ],
      "stateMutability": "nonpayable",
      "type": "function"
    },
    {
      "inputs": [],
      "name": "clock",
      "outputs": [
        {
          "internalType": "uint48",
          "name": "",
          "type": "uint48"
        }
      ],
      "stateMutability": "view",
      "type": "function"
    },
    {
      "inputs": [],
      "name": "eip712Domain",
      "outputs": [
        {
          "internalType": "bytes1",
          "name": "fields",
          "type": "bytes1"
        },
        {
          "internalType": "string",
          "name": "name",
          "type": "string"
        },
        {
          "internalType": "string",
          "name": "version",
          "type": "string"
        },
        {
          "internalType": "uint256",
          "name": "chainId",
          "type": "uint256"
        },
        {
          "internalType": "address",
          "name": "verifyingContract",
          "type": "address"
        },
        {
          "internalType": "bytes32",
          "name": "salt",
          "type": "bytes32"
        },
        {
          "internalType": "uint256[]",
          "name": "extensions",
          "type": "uint256[]"
        }
      ],
      "stateMutability": "view",
      "type": "function"
    },
    {
      "inputs": [
        {
          "internalType": "address[]",
          "name": "targets",
          "type": "address[]"
        },
        {
          "internalType": "uint256[]",
          "name": "values",
          "type": "uint256[]"
        },
        {
          "internalType": "bytes[]",
          "name": "calldatas",
          "type": "bytes[]"
        },
        {
          "internalType": "bytes32",
          "name": "descriptionHash",
          "type": "bytes32"
        }
      ],
      "name": "execute",
      "outputs": [
        {
          "internalType": "uint256",
          "name": "",
          "type": "uint256"
        }
      ],
      "stateMutability": "payable",
      "type": "function"
    },
    {
      "inputs": [
        {
          "internalType": "address",
          "name": "account",
          "type": "address"
        },
        {
          "internalType": "uint256",
          "name": "timepoint",
          "type": "uint256"
        }
      ],
      "name": "getVotes",
      "outputs": [
        {
          "internalType": "uint256",
          "name": "",
          "type": "uint256"
        }
      ],
      "stateMutability": "view",
      "type": "function"
    },
    {
      "inputs": [
        {
          "internalType": "address",
          "name": "account",
          "type": "address"
        },
        {
          "internalType": "uint256",
          "name": "timepoint",
          "type": "uint256"
        },
        {
          "internalType": "bytes",
          "name": "params",
          "type": "bytes"
        }
      ],
      "name": "getVotesWithParams",
      "outputs": [
        {
          "internalType": "uint256",
          "name": "",
          "type": "uint256"
        }
      ],
      "stateMutability": "view",
      "type": "function"
    },
    {
      "inputs": [
        {
          "internalType": "uint256",
          "name": "proposalId",
          "type": "uint256"
        },
        {
          "internalType": "address",
          "name": "account",
          "type": "address"
        }
      ],
      "name": "hasVoted",
      "outputs": [
        {
          "internalType": "bool",
          "name": "",
          "type": "bool"
        }
      ],
      "stateMutability": "view",
      "type": "function"
    },
    {
      "inputs": [
        {
          "internalType": "address[]",
          "name": "targets",
          "type": "address[]"
        },
        {
          "internalType": "uint256[]",
          "name": "values",
          "type": "uint256[]"
        },
        {
          "internalType": "bytes[]",
          "name": "calldatas",
          "type": "bytes[]"
        },
        {
          "internalType": "bytes32",
          "name": "descriptionHash",
          "type": "bytes32"
        }
      ],
      "name": "hashProposal",
      "outputs": [
        {
          "internalType": "uint256",
          "name": "",
          "type": "uint256"
        }
      ],
      "stateMutability": "pure",
      "type": "function"
    },
    {
      "inputs": [],
      "name": "name",
      "outputs": [
        {
          "internalType": "string",
          "name": "",
          "type": "string"
        }
      ],
      "stateMutability": "view",
      "type": "function"
    },
    {
      "inputs": [
        {
          "internalType": "address",
          "name": "owner",
          "type": "address"
        }
      ],
      "name": "nonces",
      "outputs": [
        {
          "internalType": "uint256",
          "name": "",
          "type": "uint256"
        }
      ],
      "stateMutability": "view",
      "type": "function"
    },
    {
      "inputs": [
        {
          "internalType": "address",
          "name": "",
          "type": "address"
        },
        {
          "internalType": "address",
          "name": "",
          "type": "address"
        },
        {
          "internalType": "uint256[]",
          "name": "",
          "type": "uint256[]"
        },
        {
          "internalType": "uint256[]",
          "name": "",
          "type": "uint256[]"
        },
        {
          "internalType": "bytes",
          "name": "",
          "type": "bytes"
        }
      ],
      "name": "onERC1155BatchReceived",
      "outputs": [
        {
          "internalType": "bytes4",
          "name": "",
          "type": "bytes4"
        }
      ],
      "stateMutability": "nonpayable",
      "type": "function"
    },
    {
      "inputs": [
        {
          "internalType": "address",
          "name": "",
          "type": "address"
        },
        {
          "internalType": "address",
          "name": "",
          "type": "address"
        },
        {
          "internalType": "uint256",
          "name": "",
          "type": "uint256"
        },
        {
          "internalType": "uint256",
          "name": "",
          "type": "uint256"
        },
        {
          "internalType": "bytes",
          "name": "",
          "type": "bytes"
        }
      ],
      "name": "onERC1155Received",
      "outputs": [
        {
          "internalType": "bytes4",
          "name": "",
          "type": "bytes4"
        }
      ],
      "stateMutability": "nonpayable",
      "type": "function"
    },
    {
      "inputs": [
        {
          "internalType": "address",
          "name": "",
          "type": "address"
        },
        {
          "internalType": "address",
          "name": "",
          "type": "address"
        },
        {
          "internalType": "uint256",
          "name": "",
          "type": "uint256"
        },
        {
          "internalType": "bytes",
          "name": "",
          "type": "bytes"
        }
      ],
      "name": "onERC721Received",
      "outputs": [
        {
          "internalType": "bytes4",
          "name": "",
          "type": "bytes4"
        }
      ],
      "stateMutability": "nonpayable",
      "type": "function"
    },
    {
      "inputs": [
        {
          "internalType": "uint256",
          "name": "proposalId",
          "type": "uint256"
        }
      ],
      "name": "proposalDeadline",
      "outputs": [
        {
          "internalType": "uint256",
          "name": "",
          "type": "uint256"
        }
      ],
      "stateMutability": "view",
      "type": "function"
    },
    {
      "inputs": [
        {
          "internalType": "uint256",
          "name": "proposalId",
          "type": "uint256"
        }
      ],
      "name": "proposalEta",
      "outputs": [
        {
          "internalType": "uint256",
          "name": "",
          "type": "uint256"
        }
      ],
      "stateMutability": "view",
      "type": "function"
    },
    {
      "inputs": [
        {
          "internalType": "uint256",
          "name": "",
          "type": "uint256"
        }
      ],
      "name": "proposalNeedsQueuing",
      "outputs": [
        {
          "internalType": "bool",
          "name": "",
          "type": "bool"
        }
      ],
      "stateMutability": "view",
      "type": "function"
    },
    {
      "inputs": [
        {
          "internalType": "uint256",
          "name": "proposalId",
          "type": "uint256"
        }
      ],
      "name": "proposalProposer",
      "outputs": [
        {
          "internalType": "address",
          "name": "",
          "type": "address"
        }
      ],
      "stateMutability": "view",
      "type": "function"
    },
    {
      "inputs": [
        {
          "internalType": "uint256",
          "name": "proposalId",
          "type": "uint256"
        }
      ],
      "name": "proposalSnapshot",
      "outputs": [
        {
          "internalType": "uint256",
          "name": "",
          "type": "uint256"
        }
      ],
      "stateMutability": "view",
      "type": "function"
    },
    {
      "inputs": [],
      "name": "proposalThreshold",
      "outputs": [
        {
          "internalType": "uint256",
          "name": "",
          "type": "uint256"
        }
      ],
      "stateMutability": "view",
      "type": "function"
    },
    {
      "inputs": [
        {
          "internalType": "uint256",
          "name": "proposalId",
          "type": "uint256"
        }
      ],
      "name": "proposalVotes",
      "outputs": [
        {
          "internalType": "uint256",
          "name": "againstVotes",
          "type": "uint256"
        },
        {
          "internalType": "uint256",
          "name": "forVotes",
          "type": "uint256"
        },
        {
          "internalType": "uint256",
          "name": "abstainVotes",
          "type": "uint256"
        }
      ],
      "stateMutability": "view",
      "type": "function"
    },
    {
      "inputs": [
        {
          "internalType": "address[]",
          "name": "targets",
          "type": "address[]"
        },
        {
          "internalType": "uint256[]",
          "name": "values",
          "type": "uint256[]"
        },
        {
          "internalType": "bytes[]",
          "name": "calldatas",
          "type": "bytes[]"
        },
        {
          "internalType": "string",
          "name": "description",
          "type": "string"
        }
      ],
      "name": "propose",
      "outputs": [
        {
          "internalType": "uint256",
          "name": "",
          "type": "uint256"
        }
      ],
      "stateMutability": "nonpayable",
      "type": "function"
    },
    {
      "inputs": [
        {
          "internalType": "address[]",
          "name": "targets",
          "type": "address[]"
        },
        {
          "internalType": "uint256[]",
          "name": "values",
          "type": "uint256[]"
        },
        {
          "internalType": "bytes[]",
          "name": "calldatas",
          "type": "bytes[]"
        },
        {
          "internalType": "bytes32",
          "name": "descriptionHash",
          "type": "bytes32"
        }
      ],
      "name": "queue",
      "outputs": [
        {
          "internalType": "uint256",
          "name": "",
          "type": "uint256"
        }
      ],
      "stateMutability": "nonpayable",
      "type": "function"
    },
    {
      "inputs": [
        {
          "internalType": "uint256",
          "name": "blockNumber",
          "type": "uint256"
        }
      ],
      "name": "quorum",
      "outputs": [
        {
          "internalType": "uint256",
          "name": "",
          "type": "uint256"
        }
      ],
      "stateMutability": "view",
      "type": "function"
    },
    {
      "inputs": [],
      "name": "quorumDenominator",
      "outputs": [
        {
          "internalType": "uint256",
          "name": "",
          "type": "uint256"
        }
      ],
      "stateMutability": "view",
      "type": "function"
    },
    {
      "inputs": [
        {
          "internalType": "uint256",
          "name": "timepoint",
          "type": "uint256"
        }
      ],
      "name": "quorumNumerator",
      "outputs": [
        {
          "internalType": "uint256",
          "name": "",
          "type": "uint256"
        }
      ],
      "stateMutability": "view",
      "type": "function"
    },
    {
      "inputs": [],
      "name": "quorumNumerator",
      "outputs": [
        {
          "internalType": "uint256",
          "name": "",
          "type": "uint256"
        }
      ],
      "stateMutability": "view",
      "type": "function"
    },
    {
      "inputs": [
        {
          "internalType": "address",
          "name": "target",
          "type": "address"
        },
        {
          "internalType": "uint256",
          "name": "value",
          "type": "uint256"
        },
        {
          "internalType": "bytes",
          "name": "data",
          "type": "bytes"
        }
      ],
      "name": "relay",
      "outputs": [],
      "stateMutability": "payable",
      "type": "function"
    },
    {
      "inputs": [
        {
          "internalType": "uint256",
          "name": "proposalId",
          "type": "uint256"
        }
      ],
      "name": "state",
      "outputs": [
        {
          "internalType": "enum IGovernor.ProposalState",
          "name": "",
          "type": "uint8"
        }
      ],
      "stateMutability": "view",
      "type": "function"
    },
    {
      "inputs": [
        {
          "internalType": "bytes4",
          "name": "interfaceId",
          "type": "bytes4"
        }
      ],
      "name": "supportsInterface",
      "outputs": [
        {
          "internalType": "bool",
          "name": "",
          "type": "bool"
        }
      ],
      "stateMutability": "view",
      "type": "function"
    },
    {
      "inputs": [],
      "name": "token",
      "outputs": [
        {
          "internalType": "contract IERC5805",
          "name": "",
          "type": "address"
        }
      ],
      "stateMutability": "view",
      "type": "function"
    },
    {
      "inputs": [
        {
          "internalType": "uint256",
          "name": "newQuorumNumerator",
          "type": "uint256"
        }
      ],
      "name": "updateQuorumNumerator",
      "outputs": [],
      "stateMutability": "nonpayable",
      "type": "function"
    },
    {
      "inputs": [],
      "name": "version",
      "outputs": [
        {
          "internalType": "string",
          "name": "",
          "type": "string"
        }
      ],
      "stateMutability": "view",
      "type": "function"
    },
    {
      "inputs": [],
      "name": "votingDelay",
      "outputs": [
        {
          "internalType": "uint256",
          "name": "",
          "type": "uint256"
        }
      ],
      "stateMutability": "pure",
      "type": "function"
    },
    {
      "inputs": [],
      "name": "votingPeriod",
      "outputs": [
        {
          "internalType": "uint256",
          "name": "",
          "type": "uint256"
        }
      ],
      "stateMutability": "pure",
      "type": "function"
    },
    {
      "stateMutability": "payable",
      "type": "receive"
    }
  ],
  "transactionHash": "0x6bc8474f29bc164ae3d298adc996664a6945e740c4eaf81c80107757c5d5b05d",
  "args": [
    "0xcd99AA11b9aB73Bdd06c4dACB20C3616DA57f3B0"
  ],
  "numDeployments": 1,
  "solcInputHash": "a8030f30d04805b9bbf50afa36e0ff0b",
  "bytecode": "0x6101806040523480156200001257600080fd5b506040516200416b3803806200416b83398101604081905262000035916200059e565b600481604051806040016040528060038152602001624e444360e81b81525080620000656200014a60201b60201c565b6200007282600062000165565b610120526200008381600162000165565b61014052815160208084019190912060e052815190820120610100524660a0526200011160e05161010051604080517f8b73c3c69bb8fe3d512ecc4cf759cc79239f7b179b0ffacaa9a75d522b39400f60208201529081019290925260608201524660808201523060a082015260009060c00160405160208183030381529060405280519060200120905090565b60805250503060c05260036200012882826200066e565b50506001600160a01b03166101605262000142816200019e565b5050620007fb565b6040805180820190915260018152603160f81b602082015290565b600060208351101562000185576200017d8362000242565b905062000198565b816200019284826200066e565b5060ff90505b92915050565b606480821115620001d15760405163243e544560e01b815260048101839052602481018290526044015b60405180910390fd5b6000620001dd62000285565b905062000202620001ed620002a1565b620001f88562000323565b600891906200035d565b505060408051828152602081018590527f0553476bf02ef2726e8ce5ced78d63e26e602e4a2257b1f559418e24b4633997910160405180910390a1505050565b600080829050601f8151111562000270578260405163305a27a960e01b8152600401620001c891906200073a565b80516200027d826200078a565b179392505050565b60006200029360086200037a565b6001600160d01b0316905090565b6000620002ae6101605190565b6001600160a01b03166391ddadf46040518163ffffffff1660e01b8152600401602060405180830381865afa9250505080156200030a575060408051601f3d908101601f191682019092526200030791810190620007af565b60015b6200031e5762000319620003ca565b905090565b919050565b60006001600160d01b0382111562000359576040516306dfcc6560e41b815260d0600482015260248101839052604401620001c8565b5090565b6000806200036d858585620003d7565b915091505b935093915050565b80546000908015620003c057620003a68362000398600184620007d9565b600091825260209091200190565b54660100000000000090046001600160d01b0316620003c3565b60005b9392505050565b6000620003194362000569565b8254600090819080156200050a576000620003f98762000398600185620007d9565b60408051808201909152905465ffffffffffff80821680845266010000000000009092046001600160d01b0316602084015291925090871610156200045157604051632520601d60e01b815260040160405180910390fd5b805165ffffffffffff808816911603620004a55784620004788862000398600186620007d9565b80546001600160d01b039290921666010000000000000265ffffffffffff909216919091179055620004f9565b6040805180820190915265ffffffffffff80881682526001600160d01b0380881660208085019182528b54600181018d5560008d815291909120945191519092166601000000000000029216919091179101555b602001519250839150620003729050565b50506040805180820190915265ffffffffffff80851682526001600160d01b0380851660208085019182528854600181018a5560008a815291822095519251909316660100000000000002919093161792019190915590508162000372565b600065ffffffffffff82111562000359576040516306dfcc6560e41b81526030600482015260248101839052604401620001c8565b600060208284031215620005b157600080fd5b81516001600160a01b0381168114620003c357600080fd5b634e487b7160e01b600052604160045260246000fd5b600181811c90821680620005f457607f821691505b6020821081036200061557634e487b7160e01b600052602260045260246000fd5b50919050565b601f8211156200066957600081815260208120601f850160051c81016020861015620006445750805b601f850160051c820191505b81811015620006655782815560010162000650565b5050505b505050565b81516001600160401b038111156200068a576200068a620005c9565b620006a2816200069b8454620005df565b846200061b565b602080601f831160018114620006da5760008415620006c15750858301515b600019600386901b1c1916600185901b17855562000665565b600085815260208120601f198616915b828110156200070b57888601518255948401946001909101908401620006ea565b50858210156200072a5787850151600019600388901b60f8161c191681555b5050505050600190811b01905550565b600060208083528351808285015260005b8181101562000769578581018301518582016040015282016200074b565b506000604082860101526040601f19601f8301168501019250505092915050565b80516020808301519190811015620006155760001960209190910360031b1b16919050565b600060208284031215620007c257600080fd5b815165ffffffffffff81168114620003c357600080fd5b818103818111156200019857634e487b7160e01b600052601160045260246000fd5b60805160a05160c05160e051610100516101205161014051610160516138ee6200087d600039600081816108dc01528181610d3e0152818161124401528181611d650152611e7701526000611d3001526000611d030152600061209d0152600061207501526000611fd001526000611ffa0152600061202401526138ee6000f3fe6080604052600436106102605760003560e01c80637b3c71d311610144578063b58131b0116100b6578063dd4e2ba51161007a578063dd4e2ba5146107e7578063deaaa7cc1461082d578063eb9019d414610861578063f23a6e6114610881578063f8ce560a146108ad578063fc0c546a146108cd57600080fd5b8063b58131b01461041d578063bc197c8114610768578063c01f9e3714610794578063c28bc2fa146107b4578063c59057e4146107c757600080fd5b806391ddadf41161010857806391ddadf41461069a57806397c3d334146106c65780639a802a6d146106da578063a7713a70146106fa578063a9a952941461070f578063ab58fb8e1461073057600080fd5b80637b3c71d3146105dc5780637d5e81e2146105fc5780637ecebe001461061c57806384b0196e146106525780638ff262e31461067a57600080fd5b80633932abb1116101dd578063544ffc9c116101a1578063544ffc9c146104dd57806354fd4d5014610532578063567813881461055c5780635b8d0e0d1461057c5780635f398a141461059c57806360c4247f146105bc57600080fd5b80633932abb11461041d5780633e4f49e614610431578063438596321461045e578063452115d6146104a85780634bf5d7e9146104c857600080fd5b8063150b7a0211610224578063150b7a0214610352578063160cbed7146103965780632656227d146103b65780632d63f693146103c95780632fe3e261146103e957600080fd5b806301ffc9a71461026e57806302a251a3146102a357806306f3f9e6146102c257806306fdde03146102e2578063143489d01461030457600080fd5b3661026957005b005b600080fd5b34801561027a57600080fd5b5061028e610289366004612965565b610900565b60405190151581526020015b60405180910390f35b3480156102af57600080fd5b5061c4e05b60405190815260200161029a565b3480156102ce57600080fd5b506102676102dd36600461298f565b610952565b3480156102ee57600080fd5b506102f7610966565b60405161029a91906129f8565b34801561031057600080fd5b5061033a61031f36600461298f565b6000908152600460205260409020546001600160a01b031690565b6040516001600160a01b03909116815260200161029a565b34801561035e57600080fd5b5061037d61036d366004612aed565b630a85bd0160e11b949350505050565b6040516001600160e01b0319909116815260200161029a565b3480156103a257600080fd5b506102b46103b1366004612cbe565b6109f8565b6102b46103c4366004612cbe565b610a38565b3480156103d557600080fd5b506102b46103e436600461298f565b610b6b565b3480156103f557600080fd5b506102b47f3e83946653575f9a39005e1545185629e92736b7528ab20ca3816f315424a81181565b34801561042957600080fd5b5060006102b4565b34801561043d57600080fd5b5061045161044c36600461298f565b610b8c565b60405161029a9190612d85565b34801561046a57600080fd5b5061028e610479366004612d93565b60008281526007602090815260408083206001600160a01b038516845260030190915290205460ff1692915050565b3480156104b457600080fd5b506102b46104c3366004612cbe565b610ccb565b3480156104d457600080fd5b506102f7610d3a565b3480156104e957600080fd5b506105176104f836600461298f565b6000908152600760205260409020805460018201546002909201549092565b6040805193845260208401929092529082015260600161029a565b34801561053e57600080fd5b506040805180820190915260018152603160f81b60208201526102f7565b34801561056857600080fd5b506102b4610577366004612dd0565b610dfc565b34801561058857600080fd5b506102b4610597366004612e3b565b610e25565b3480156105a857600080fd5b506102b46105b7366004612ef3565b610f84565b3480156105c857600080fd5b506102b46105d736600461298f565b610fd9565b3480156105e857600080fd5b506102b46105f7366004612f76565b611067565b34801561060857600080fd5b506102b4610617366004612fcf565b6110af565b34801561062857600080fd5b506102b4610637366004613083565b6001600160a01b031660009081526002602052604090205490565b34801561065e57600080fd5b50610667611128565b60405161029a97969594939291906130d9565b34801561068657600080fd5b506102b4610695366004613149565b61116e565b3480156106a657600080fd5b506106af611240565b60405165ffffffffffff909116815260200161029a565b3480156106d257600080fd5b5060646102b4565b3480156106e657600080fd5b506102b46106f5366004613198565b6112cd565b34801561070657600080fd5b506102b46112da565b34801561071b57600080fd5b5061028e61072a36600461298f565b50600090565b34801561073c57600080fd5b506102b461074b36600461298f565b60009081526004602052604090206001015465ffffffffffff1690565b34801561077457600080fd5b5061037d6107833660046131ee565b63bc197c8160e01b95945050505050565b3480156107a057600080fd5b506102b46107af36600461298f565b6112f4565b6102676107c236600461327d565b611337565b3480156107d357600080fd5b506102b46107e2366004612cbe565b6113b7565b3480156107f357600080fd5b506040805180820190915260208082527f737570706f72743d627261766f2671756f72756d3d666f722c6162737461696e908201526102f7565b34801561083957600080fd5b506102b47ff2aad550cf55f045cb27e9c559f9889fdfb6e6cdaa032301d6ea397784ae51d781565b34801561086d57600080fd5b506102b461087c3660046132be565b6113f1565b34801561088d57600080fd5b5061037d61089c3660046132e8565b63f23a6e6160e01b95945050505050565b3480156108b957600080fd5b506102b46108c836600461298f565b611419565b3480156108d957600080fd5b507f000000000000000000000000000000000000000000000000000000000000000061033a565b60006001600160e01b031982166332a2ad4360e11b148061093157506001600160e01b03198216630271189760e51b145b8061094c57506301ffc9a760e01b6001600160e01b03198316145b92915050565b61095a611424565b6109638161145b565b50565b6060600380546109759061334c565b80601f01602080910402602001604051908101604052809291908181526020018280546109a19061334c565b80156109ee5780601f106109c3576101008083540402835291602001916109ee565b820191906000526020600020905b8154815290600101906020018083116109d157829003601f168201915b5050505050905090565b600080610a07868686866113b7565b9050610a1c81610a1760046114f1565b611514565b506000604051634844252360e11b815260040160405180910390fd5b600080610a47868686866113b7565b9050610a6781610a5760056114f1565b610a6160046114f1565b17611514565b506000818152600460205260409020805460ff60f01b1916600160f01b17905530610a8f3090565b6001600160a01b031614610b215760005b8651811015610b1f57306001600160a01b0316878281518110610ac557610ac5613386565b60200260200101516001600160a01b031603610b0f57610b0f858281518110610af057610af0613386565b602002602001015180519060200120600561155390919063ffffffff16565b610b18816133b2565b9050610aa0565b505b610b2e81878787876115c4565b6040518181527f712ae1383f79ac853f8d882153778e0260ef8f03b504e2866e0593e04d2b291f906020015b60405180910390a195945050505050565b600090815260046020526040902054600160a01b900465ffffffffffff1690565b6000818152600460205260408120805460ff600160f01b8204811691600160f81b9004168115610bc157506007949350505050565b8015610bd257506002949350505050565b6000610bdd86610b6b565b905080600003610c0857604051636ad0607560e01b8152600481018790526024015b60405180910390fd5b6000610c12611240565b65ffffffffffff169050808210610c30575060009695505050505050565b6000610c3b886112f4565b9050818110610c5257506001979650505050505050565b610c5b886116a4565b1580610c7b57506000888152600760205260409020805460019091015411155b15610c8e57506003979650505050505050565b60008881526004602052604090206001015465ffffffffffff16600003610cbd57506004979650505050505050565b506005979650505050505050565b600080610cda868686866113b7565b9050610cea81610a1760006114f1565b506000818152600460205260409020546001600160a01b03163314610d245760405163233d98e360e01b8152336004820152602401610bff565b610d30868686866116db565b9695505050505050565b60607f00000000000000000000000000000000000000000000000000000000000000006001600160a01b0316634bf5d7e96040518163ffffffff1660e01b8152600401600060405180830381865afa925050508015610dbb57506040513d6000823e601f3d908101601f19168201604052610db891908101906133cb565b60015b610df7575060408051808201909152601d81527f6d6f64653d626c6f636b6e756d6265722666726f6d3d64656661756c74000000602082015290565b919050565b600080339050610e1d8482856040518060200160405280600081525061178c565b949350505050565b600080610f0887610f027f3e83946653575f9a39005e1545185629e92736b7528ab20ca3816f315424a8118c8c8c610e7a8e6001600160a01b0316600090815260026020526040902080546001810190915590565b8d8d604051610e8a929190613438565b60405180910390208c80519060200120604051602001610ee79796959493929190968752602087019590955260ff9390931660408601526001600160a01b03919091166060850152608084015260a083015260c082015260e00190565b604051602081830303815290604052805190602001206117b8565b856117e5565b905080610f33576040516394ab6c0760e01b81526001600160a01b0388166004820152602401610bff565b610f7789888a89898080601f0160208091040260200160405190810160405280939291908181526020018383808284376000920191909152508b925061183d915050565b9998505050505050505050565b600080339050610fce87828888888080601f0160208091040260200160405190810160405280939291908181526020018383808284376000920191909152508a925061183d915050565b979650505050505050565b600880546000918290610fed600184613448565b81548110610ffd57610ffd613386565b6000918252602090912001805490915065ffffffffffff811690600160301b90046001600160d01b0316858211611040576001600160d01b031695945050505050565b61105461104c8761191a565b600890611951565b6001600160d01b03169695505050505050565b600080339050610d3086828787878080601f01602080910402602001604051908101604052809392919081815260200183838082843760009201919091525061178c92505050565b6000336110bc8184611a06565b6110e45760405163d9b3955760e01b81526001600160a01b0382166004820152602401610bff565b600061110b8260016110f4611240565b6110fe919061345b565b65ffffffffffff166113f1565b9050600061111c8888888887611af7565b98975050505050505050565b60006060806000806000606061113c611cfc565b611144611d29565b60408051600080825260208201909252600f60f81b9b939a50919850469750309650945092509050565b6000806111fa84610f027ff2aad550cf55f045cb27e9c559f9889fdfb6e6cdaa032301d6ea397784ae51d78989896111c38b6001600160a01b0316600090815260026020526040902080546001810190915590565b60408051602081019690965285019390935260ff90911660608401526001600160a01b0316608083015260a082015260c001610ee7565b905080611225576040516394ab6c0760e01b81526001600160a01b0385166004820152602401610bff565b610d308685876040518060200160405280600081525061178c565b60007f00000000000000000000000000000000000000000000000000000000000000006001600160a01b03166391ddadf46040518163ffffffff1660e01b8152600401602060405180830381865afa9250505080156112bc575060408051601f3d908101601f191682019092526112b991810190613481565b60015b610df7576112c8611d56565b905090565b6000610e1d848484611d61565b60006112e66008611df7565b6001600160d01b0316905090565b60008181526004602052604081205461132990600160d01b810463ffffffff1690600160a01b900465ffffffffffff166134a9565b65ffffffffffff1692915050565b61133f611424565b600080856001600160a01b031685858560405161135d929190613438565b60006040518083038185875af1925050503d806000811461139a576040519150601f19603f3d011682016040523d82523d6000602084013e61139f565b606091505b50915091506113ae8282611e30565b50505050505050565b6000848484846040516020016113d09493929190613556565b60408051601f19818403018152919052805160209091012095945050505050565b6000611412838361140d60408051602081019091526000815290565b611d61565b9392505050565b600061094c82611e4c565b303314611446576040516347096e4760e01b8152336004820152602401610bff565b565b806114536005611ef6565b036114485750565b6064808211156114885760405163243e544560e01b81526004810183905260248101829052604401610bff565b60006114926112da565b90506114b161149f611240565b6114a885611f74565b60089190611fa8565b505060408051828152602081018590527f0553476bf02ef2726e8ce5ced78d63e26e602e4a2257b1f559418e24b4633997910160405180910390a1505050565b600081600781111561150557611505612d4d565b600160ff919091161b92915050565b60008061152084610b8c565b905060008361152e836114f1565b1603611412578381846040516331b75e4d60e01b8152600401610bff939291906135a1565b81546001600160801b03600160801b82048116918116600183019091160361158e57604051638acb5f2760e01b815260040160405180910390fd5b6001600160801b03808216600090815260018086016020526040909120939093558354919092018216600160801b029116179055565b60005b845181101561169c576000808683815181106115e5576115e5613386565b60200260200101516001600160a01b031686848151811061160857611608613386565b602002602001015186858151811061162257611622613386565b602002602001015160405161163791906135c3565b60006040518083038185875af1925050503d8060008114611674576040519150601f19603f3d011682016040523d82523d6000602084013e611679565b606091505b50915091506116888282611e30565b50505080611695906133b2565b90506115c7565b505050505050565b6000818152600760205260408120600281015460018201546116c691906135df565b6116d26108c885610b6b565b11159392505050565b6000806116ea868686866113b7565b9050611738816116fa60076114f1565b61170460066114f1565b61170e60026114f1565b600161171b6007826135f2565b6117269060026136ef565b6117309190613448565b181818611514565b506000818152600460205260409081902080546001600160f81b0316600160f81b179055517f789cf55be980739dad1d0699b93b58e806b51c9d96619bfa8fe0a28abaa7b30c90610b5a9083815260200190565b60006117af858585856117aa60408051602081019091526000815290565b61183d565b95945050505050565b600061094c6117c5611fc3565b8360405161190160f01b8152600281019290925260228201526042902090565b60008060006117f485856120ee565b509092509050600081600381111561180e5761180e612d4d565b14801561182c5750856001600160a01b0316826001600160a01b0316145b80610d305750610d3086868661213b565b600061184d86610a1760016114f1565b5060006118638661185d89610b6b565b85611d61565b90506118728787878487612216565b82516000036118c757856001600160a01b03167fb8e138887d0aa13bab447e82de9d5c1777041ecd21ca36ba824ff1e6c07ddda4888784886040516118ba94939291906136fe565b60405180910390a2610d30565b856001600160a01b03167fe2babfbac5889a709b63bb7f598b324e08bc5a4fb9ec647fb3cbc9ec07eb87128887848888604051611908959493929190613726565b60405180910390a29695505050505050565b600065ffffffffffff82111561194d576040516306dfcc6560e41b81526030600482015260248101839052604401610bff565b5090565b8154600090818160058111156119b057600061196c8461230f565b6119769085613448565b60008881526020902090915081015465ffffffffffff90811690871610156119a0578091506119ae565b6119ab8160016135df565b92505b505b60006119be878785856123f7565b905080156119f9576119e3876119d5600184613448565b600091825260209091200190565b54600160301b90046001600160d01b0316610fce565b6000979650505050505050565b80516000906034811015611a1e57600191505061094c565b82810160131901516001600160a01b031981166b046e0e4dee0dee6cae47a60f60a31b14611a515760019250505061094c565b600080611a5f602885613448565b90505b83811015611ad657600080611a96888481518110611a8257611a82613386565b01602001516001600160f81b031916612459565b9150915081611aae576001965050505050505061094c565b8060ff166004856001600160a01b0316901b179350505080611acf906133b2565b9050611a62565b50856001600160a01b0316816001600160a01b031614935050505092915050565b6000611b0c86868686805190602001206113b7565b905084518651141580611b2157508351865114155b80611b2b57508551155b15611b6057855184518651604051630447b05d60e41b8152600481019390935260248301919091526044820152606401610bff565b600081815260046020526040902054600160a01b900465ffffffffffff1615611bab5780611b8d82610b8c565b6040516331b75e4d60e01b8152610bff9291906000906004016135a1565b600080611bb6611240565b65ffffffffffff16611bc891906135df565b9050600061c4e0600084815260046020526040902080546001600160a01b0319166001600160a01b038716178155909150611c028361191a565b815465ffffffffffff91909116600160a01b0265ffffffffffff60a01b19909116178155611c2f826124eb565b815463ffffffff91909116600160d01b0263ffffffff60d01b1990911617815588517f7d84a6263ae0d98d3329bd7b46bb4e8d6f98cd35a7adb45c274c8b7fd5ebd5e090859087908c908c906001600160401b03811115611c9257611c92612a22565b604051908082528060200260200182016040528015611cc557816020015b6060815260200190600190039081611cb05790505b508c89611cd28a826135df565b8e604051611ce899989796959493929190613760565b60405180910390a150505095945050505050565b60606112c87f0000000000000000000000000000000000000000000000000000000000000000600061251c565b60606112c87f0000000000000000000000000000000000000000000000000000000000000000600161251c565b60006112c84361191a565b60007f0000000000000000000000000000000000000000000000000000000000000000604051630748d63560e31b81526001600160a01b038681166004830152602482018690529190911690633a46b1a890604401602060405180830381865afa158015611dd3573d6000803e3d6000fd5b505050506040513d601f19601f82011682018060405250810190610e1d9190613837565b80546000908015611e2757611e11836119d5600184613448565b54600160301b90046001600160d01b0316611412565b60009392505050565b606082611e4557611e40826125c7565b61094c565b508061094c565b60006064611e5983610fd9565b604051632394e7a360e21b8152600481018590526001600160a01b037f00000000000000000000000000000000000000000000000000000000000000001690638e539e8c90602401602060405180830381865afa158015611ebe573d6000803e3d6000fd5b505050506040513d601f19601f82011682018060405250810190611ee29190613837565b611eec9190613850565b61094c919061387d565b80546000906001600160801b0380821691600160801b9004168103611f2e576040516375e52f4f60e01b815260040160405180910390fd5b6001600160801b038181166000908152600185810160205260408220805492905585546fffffffffffffffffffffffffffffffff19169301909116919091179092555090565b60006001600160d01b0382111561194d576040516306dfcc6560e41b815260d0600482015260248101839052604401610bff565b600080611fb68585856125f0565b915091505b935093915050565b6000306001600160a01b037f00000000000000000000000000000000000000000000000000000000000000001614801561201c57507f000000000000000000000000000000000000000000000000000000000000000046145b1561204657507f000000000000000000000000000000000000000000000000000000000000000090565b6112c8604080517f8b73c3c69bb8fe3d512ecc4cf759cc79239f7b179b0ffacaa9a75d522b39400f60208201527f0000000000000000000000000000000000000000000000000000000000000000918101919091527f000000000000000000000000000000000000000000000000000000000000000060608201524660808201523060a082015260009060c00160405160208183030381529060405280519060200120905090565b600080600083516041036121285760208401516040850151606086015160001a61211a8882858561276a565b955095509550505050612134565b50508151600091506002905b9250925092565b6000806000856001600160a01b0316858560405160240161215d92919061389f565b60408051601f198184030181529181526020820180516001600160e01b0316630b135d3f60e11b1790525161219291906135c3565b600060405180830381855afa9150503d80600081146121cd576040519150601f19603f3d011682016040523d82523d6000602084013e6121d2565b606091505b50915091508180156121e657506020815110155b8015610d3057508051630b135d3f60e11b9061220b9083016020908101908401613837565b149695505050505050565b60008581526007602090815260408083206001600160a01b0388168452600381019092529091205460ff161561226a576040516371c6af4960e01b81526001600160a01b0386166004820152602401610bff565b6001600160a01b03851660009081526003820160205260409020805460ff1916600117905560ff84166122b657828160000160008282546122ab91906135df565b9091555061169c9050565b60001960ff8516016122d657828160010160008282546122ab91906135df565b60011960ff8516016122f657828160020160008282546122ab91906135df565b6040516303599be160e11b815260040160405180910390fd5b60008160000361232157506000919050565b6000600161232e84612839565b901c6001901b9050600181848161234757612347613867565b048201901c9050600181848161235f5761235f613867565b048201901c9050600181848161237757612377613867565b048201901c9050600181848161238f5761238f613867565b048201901c905060018184816123a7576123a7613867565b048201901c905060018184816123bf576123bf613867565b048201901c905060018184816123d7576123d7613867565b048201901c9050611412818285816123f1576123f1613867565b046128cd565b60005b8183101561245157600061240e84846128e3565b60008781526020902090915065ffffffffffff86169082015465ffffffffffff16111561243d5780925061244b565b6124488160016135df565b93505b506123fa565b509392505050565b60008060f883901c602f811180156124745750603a8160ff16105b1561248957600194602f199091019350915050565b8060ff16604010801561249f575060478160ff16105b156124b4576001946036199091019350915050565b8060ff1660601080156124ca575060678160ff16105b156124df576001946056199091019350915050565b50600093849350915050565b600063ffffffff82111561194d576040516306dfcc6560e41b81526020600482015260248101839052604401610bff565b606060ff83146125365761252f836128fe565b905061094c565b8180546125429061334c565b80601f016020809104026020016040519081016040528092919081815260200182805461256e9061334c565b80156125bb5780601f10612590576101008083540402835291602001916125bb565b820191906000526020600020905b81548152906001019060200180831161259e57829003601f168201915b5050505050905061094c565b8051156125d75780518082602001fd5b604051630a12f52160e11b815260040160405180910390fd5b82546000908190801561270f57600061260e876119d5600185613448565b60408051808201909152905465ffffffffffff808216808452600160301b9092046001600160d01b03166020840152919250908716101561266257604051632520601d60e01b815260040160405180910390fd5b805165ffffffffffff8088169116036126ae5784612685886119d5600186613448565b80546001600160d01b0392909216600160301b0265ffffffffffff9092169190911790556126ff565b6040805180820190915265ffffffffffff80881682526001600160d01b0380881660208085019182528b54600181018d5560008d81529190912094519151909216600160301b029216919091179101555b602001519250839150611fbb9050565b50506040805180820190915265ffffffffffff80851682526001600160d01b0380851660208085019182528854600181018a5560008a815291822095519251909316600160301b029190931617920191909155905081611fbb565b600080807f7fffffffffffffffffffffffffffffff5d576e7357a4501ddfe92f46681b20a08411156127a5575060009150600390508261282f565b604080516000808252602082018084528a905260ff891692820192909252606081018790526080810186905260019060a0016020604051602081039080840390855afa1580156127f9573d6000803e3d6000fd5b5050604051601f1901519150506001600160a01b0381166128255750600092506001915082905061282f565b9250600091508190505b9450945094915050565b600080608083901c1561284e57608092831c92015b604083901c1561286057604092831c92015b602083901c1561287257602092831c92015b601083901c1561288457601092831c92015b600883901c1561289657600892831c92015b600483901c156128a857600492831c92015b600283901c156128ba57600292831c92015b600183901c1561094c5760010192915050565b60008183106128dc5781611412565b5090919050565b60006128f2600284841861387d565b611412908484166135df565b6060600061290b8361293d565b604080516020808252818301909252919250600091906020820181803683375050509182525060208101929092525090565b600060ff8216601f81111561094c57604051632cd44ac360e21b815260040160405180910390fd5b60006020828403121561297757600080fd5b81356001600160e01b03198116811461141257600080fd5b6000602082840312156129a157600080fd5b5035919050565b60005b838110156129c35781810151838201526020016129ab565b50506000910152565b600081518084526129e48160208601602086016129a8565b601f01601f19169290920160200192915050565b60208152600061141260208301846129cc565b80356001600160a01b0381168114610df757600080fd5b634e487b7160e01b600052604160045260246000fd5b604051601f8201601f191681016001600160401b0381118282101715612a6057612a60612a22565b604052919050565b60006001600160401b03821115612a8157612a81612a22565b50601f01601f191660200190565b6000612aa2612a9d84612a68565b612a38565b9050828152838383011115612ab657600080fd5b828260208301376000602084830101529392505050565b600082601f830112612ade57600080fd5b61141283833560208501612a8f565b60008060008060808587031215612b0357600080fd5b612b0c85612a0b565b9350612b1a60208601612a0b565b92506040850135915060608501356001600160401b03811115612b3c57600080fd5b612b4887828801612acd565b91505092959194509250565b60006001600160401b03821115612b6d57612b6d612a22565b5060051b60200190565b600082601f830112612b8857600080fd5b81356020612b98612a9d83612b54565b82815260059290921b84018101918181019086841115612bb757600080fd5b8286015b84811015612bd957612bcc81612a0b565b8352918301918301612bbb565b509695505050505050565b600082601f830112612bf557600080fd5b81356020612c05612a9d83612b54565b82815260059290921b84018101918181019086841115612c2457600080fd5b8286015b84811015612bd95780358352918301918301612c28565b600082601f830112612c5057600080fd5b81356020612c60612a9d83612b54565b82815260059290921b84018101918181019086841115612c7f57600080fd5b8286015b84811015612bd95780356001600160401b03811115612ca25760008081fd5b612cb08986838b0101612acd565b845250918301918301612c83565b60008060008060808587031215612cd457600080fd5b84356001600160401b0380821115612ceb57600080fd5b612cf788838901612b77565b95506020870135915080821115612d0d57600080fd5b612d1988838901612be4565b94506040870135915080821115612d2f57600080fd5b50612d3c87828801612c3f565b949793965093946060013593505050565b634e487b7160e01b600052602160045260246000fd5b60088110612d8157634e487b7160e01b600052602160045260246000fd5b9052565b6020810161094c8284612d63565b60008060408385031215612da657600080fd5b82359150612db660208401612a0b565b90509250929050565b803560ff81168114610df757600080fd5b60008060408385031215612de357600080fd5b82359150612db660208401612dbf565b60008083601f840112612e0557600080fd5b5081356001600160401b03811115612e1c57600080fd5b602083019150836020828501011115612e3457600080fd5b9250929050565b600080600080600080600060c0888a031215612e5657600080fd5b87359650612e6660208901612dbf565b9550612e7460408901612a0b565b945060608801356001600160401b0380821115612e9057600080fd5b612e9c8b838c01612df3565b909650945060808a0135915080821115612eb557600080fd5b612ec18b838c01612acd565b935060a08a0135915080821115612ed757600080fd5b50612ee48a828b01612acd565b91505092959891949750929550565b600080600080600060808688031215612f0b57600080fd5b85359450612f1b60208701612dbf565b935060408601356001600160401b0380821115612f3757600080fd5b612f4389838a01612df3565b90955093506060880135915080821115612f5c57600080fd5b50612f6988828901612acd565b9150509295509295909350565b60008060008060608587031215612f8c57600080fd5b84359350612f9c60208601612dbf565b925060408501356001600160401b03811115612fb757600080fd5b612fc387828801612df3565b95989497509550505050565b60008060008060808587031215612fe557600080fd5b84356001600160401b0380821115612ffc57600080fd5b61300888838901612b77565b9550602087013591508082111561301e57600080fd5b61302a88838901612be4565b9450604087013591508082111561304057600080fd5b61304c88838901612c3f565b9350606087013591508082111561306257600080fd5b508501601f8101871361307457600080fd5b612b4887823560208401612a8f565b60006020828403121561309557600080fd5b61141282612a0b565b600081518084526020808501945080840160005b838110156130ce578151875295820195908201906001016130b2565b509495945050505050565b60ff60f81b8816815260e0602082015260006130f860e08301896129cc565b828103604084015261310a81896129cc565b606084018890526001600160a01b038716608085015260a0840186905283810360c0850152905061313b818561309e565b9a9950505050505050505050565b6000806000806080858703121561315f57600080fd5b8435935061316f60208601612dbf565b925061317d60408601612a0b565b915060608501356001600160401b03811115612b3c57600080fd5b6000806000606084860312156131ad57600080fd5b6131b684612a0b565b92506020840135915060408401356001600160401b038111156131d857600080fd5b6131e486828701612acd565b9150509250925092565b600080600080600060a0868803121561320657600080fd5b61320f86612a0b565b945061321d60208701612a0b565b935060408601356001600160401b038082111561323957600080fd5b61324589838a01612be4565b9450606088013591508082111561325b57600080fd5b61326789838a01612be4565b93506080880135915080821115612f5c57600080fd5b6000806000806060858703121561329357600080fd5b61329c85612a0b565b93506020850135925060408501356001600160401b03811115612fb757600080fd5b600080604083850312156132d157600080fd5b6132da83612a0b565b946020939093013593505050565b600080600080600060a0868803121561330057600080fd5b61330986612a0b565b945061331760208701612a0b565b9350604086013592506060860135915060808601356001600160401b0381111561334057600080fd5b612f6988828901612acd565b600181811c9082168061336057607f821691505b60208210810361338057634e487b7160e01b600052602260045260246000fd5b50919050565b634e487b7160e01b600052603260045260246000fd5b634e487b7160e01b600052601160045260246000fd5b6000600182016133c4576133c461339c565b5060010190565b6000602082840312156133dd57600080fd5b81516001600160401b038111156133f357600080fd5b8201601f8101841361340457600080fd5b8051613412612a9d82612a68565b81815285602083850101111561342757600080fd5b6117af8260208301602086016129a8565b8183823760009101908152919050565b8181038181111561094c5761094c61339c565b65ffffffffffff82811682821603908082111561347a5761347a61339c565b5092915050565b60006020828403121561349357600080fd5b815165ffffffffffff8116811461141257600080fd5b65ffffffffffff81811683821601908082111561347a5761347a61339c565b600081518084526020808501945080840160005b838110156130ce5781516001600160a01b0316875295820195908201906001016134dc565b600081518084526020808501808196508360051b8101915082860160005b858110156135495782840389526135378483516129cc565b9885019893509084019060010161351f565b5091979650505050505050565b60808152600061356960808301876134c8565b828103602084015261357b818761309e565b9050828103604084015261358f8186613501565b91505082606083015295945050505050565b838152606081016135b56020830185612d63565b826040830152949350505050565b600082516135d58184602087016129a8565b9190910192915050565b8082018082111561094c5761094c61339c565b60ff818116838216019081111561094c5761094c61339c565b600181815b8085111561364657816000190482111561362c5761362c61339c565b8085161561363957918102915b93841c9390800290613610565b509250929050565b60008261365d5750600161094c565b8161366a5750600061094c565b8160018114613680576002811461368a576136a6565b600191505061094c565b60ff84111561369b5761369b61339c565b50506001821b61094c565b5060208310610133831016604e8410600b84101617156136c9575081810a61094c565b6136d3838361360b565b80600019048211156136e7576136e761339c565b029392505050565b600061141260ff84168361364e565b84815260ff84166020820152826040820152608060608201526000610d3060808301846129cc565b85815260ff8516602082015283604082015260a06060820152600061374e60a08301856129cc565b828103608084015261111c81856129cc565b60006101208b8352602060018060a01b038c16818501528160408501526137898285018c6134c8565b9150838203606085015261379d828b61309e565b915083820360808501528189518084528284019150828160051b850101838c0160005b838110156137ee57601f198784030185526137dc8383516129cc565b948601949250908501906001016137c0565b505086810360a0880152613802818c613501565b9450505050508560c08401528460e084015282810361010084015261382781856129cc565b9c9b505050505050505050505050565b60006020828403121561384957600080fd5b5051919050565b808202811582820484141761094c5761094c61339c565b634e487b7160e01b600052601260045260246000fd5b60008261389a57634e487b7160e01b600052601260045260246000fd5b500490565b828152604060208201526000610e1d60408301846129cc56fea26469706673582212200513201a37d74c258f6a1901b73a7421b40fad79d6fcad8b6183304ff8c9716564736f6c63430008140033",
  "devdoc": {
    "errors": {
      "CheckpointUnorderedInsertion()": [
        {
          "details": "A value was attempted to be inserted on a past checkpoint."
        }
      ],
      "FailedInnerCall()": [
        {
          "details": "A call to an address target failed. The target may have reverted."
        }
      ],
      "GovernorAlreadyCastVote(address)": [
        {
          "details": "The vote was already cast."
        }
      ],
      "GovernorAlreadyQueuedProposal(uint256)": [
        {
          "details": "The proposal has already been queued."
        }
      ],
      "GovernorDisabledDeposit()": [
        {
          "details": "Token deposits are disabled in this contract."
        }
      ],
      "GovernorInsufficientProposerVotes(address,uint256,uint256)": [
        {
          "details": "The `proposer` does not have the required votes to create a proposal."
        }
      ],
      "GovernorInvalidProposalLength(uint256,uint256,uint256)": [
        {
          "details": "Empty proposal or a mismatch between the parameters length for a proposal call."
        }
      ],
      "GovernorInvalidQuorumFraction(uint256,uint256)": [
        {
          "details": "The quorum set is not a valid fraction."
        }
      ],
      "GovernorInvalidSignature(address)": [
        {
          "details": "The provided signature is not valid for the expected `voter`. If the `voter` is a contract, the signature is not valid using {IERC1271-isValidSignature}."
        }
      ],
      "GovernorInvalidVoteType()": [
        {
          "details": "The vote type used is not valid for the corresponding counting module."
        }
      ],
      "GovernorInvalidVotingPeriod(uint256)": [
        {
          "details": "The voting period set is not a valid period."
        }
      ],
      "GovernorNonexistentProposal(uint256)": [
        {
          "details": "The `proposalId` doesn't exist."
        }
      ],
      "GovernorNotQueuedProposal(uint256)": [
        {
          "details": "The proposal hasn't been queued yet."
        }
      ],
      "GovernorOnlyExecutor(address)": [
        {
          "details": "The `account` is not the governance executor."
        }
      ],
      "GovernorOnlyProposer(address)": [
        {
          "details": "The `account` is not a proposer."
        }
      ],
      "GovernorQueueNotImplemented()": [
        {
          "details": "Queue operation is not implemented for this governor. Execute should be called directly."
        }
      ],
      "GovernorRestrictedProposer(address)": [
        {
          "details": "The `proposer` is not allowed to create a proposal."
        }
      ],
      "GovernorUnexpectedProposalState(uint256,uint8,bytes32)": [
        {
          "details": "The current state of a proposal is not the required for performing an operation. The `expectedStates` is a bitmap with the bits enabled for each ProposalState enum position counting from right to left. NOTE: If `expectedState` is `bytes32(0)`, the proposal is expected to not be in any state (i.e. not exist). This is the case when a proposal that is expected to be unset is already initiated (the proposal is duplicated). See {Governor-_encodeStateBitmap}."
        }
      ],
      "InvalidAccountNonce(address,uint256)": [
        {
          "details": "The nonce used for an `account` is not the expected current nonce."
        }
      ],
      "QueueEmpty()": [
        {
          "details": "An operation (e.g. {front}) couldn't be completed due to the queue being empty."
        }
      ],
      "QueueFull()": [
        {
          "details": "A push operation couldn't be completed due to the queue being full."
        }
      ],
      "SafeCastOverflowedUintDowncast(uint8,uint256)": [
        {
          "details": "Value doesn't fit in an uint of `bits` size."
        }
      ]
    },
    "events": {
      "EIP712DomainChanged()": {
        "details": "MAY be emitted to signal that the domain could have changed."
      },
      "ProposalCanceled(uint256)": {
        "details": "Emitted when a proposal is canceled."
      },
      "ProposalCreated(uint256,address,address[],uint256[],string[],bytes[],uint256,uint256,string)": {
        "details": "Emitted when a proposal is created."
      },
      "ProposalExecuted(uint256)": {
        "details": "Emitted when a proposal is executed."
      },
      "ProposalQueued(uint256,uint256)": {
        "details": "Emitted when a proposal is queued."
      },
      "VoteCast(address,uint256,uint8,uint256,string)": {
        "details": "Emitted when a vote is cast without params. Note: `support` values should be seen as buckets. Their interpretation depends on the voting module used."
      },
      "VoteCastWithParams(address,uint256,uint8,uint256,string,bytes)": {
        "details": "Emitted when a vote is cast with params. Note: `support` values should be seen as buckets. Their interpretation depends on the voting module used. `params` are additional encoded parameters. Their interpepretation also depends on the voting module used."
      }
    },
    "kind": "dev",
    "methods": {
      "CLOCK_MODE()": {
        "details": "Machine-readable description of the clock as specified in EIP-6372."
      },
      "COUNTING_MODE()": {
        "details": "See {IGovernor-COUNTING_MODE}."
      },
      "cancel(address[],uint256[],bytes[],bytes32)": {
        "details": "See {IGovernor-cancel}."
      },
      "castVote(uint256,uint8)": {
        "details": "See {IGovernor-castVote}."
      },
      "castVoteBySig(uint256,uint8,address,bytes)": {
        "details": "See {IGovernor-castVoteBySig}."
      },
      "castVoteWithReason(uint256,uint8,string)": {
        "details": "See {IGovernor-castVoteWithReason}."
      },
      "castVoteWithReasonAndParams(uint256,uint8,string,bytes)": {
        "details": "See {IGovernor-castVoteWithReasonAndParams}."
      },
      "castVoteWithReasonAndParamsBySig(uint256,uint8,address,string,bytes,bytes)": {
        "details": "See {IGovernor-castVoteWithReasonAndParamsBySig}."
      },
      "clock()": {
        "details": "Clock (as specified in EIP-6372) is set to match the token's clock. Fallback to block numbers if the token does not implement EIP-6372."
      },
      "eip712Domain()": {
        "details": "See {IERC-5267}."
      },
      "execute(address[],uint256[],bytes[],bytes32)": {
        "details": "See {IGovernor-execute}."
      },
      "getVotes(address,uint256)": {
        "details": "See {IGovernor-getVotes}."
      },
      "getVotesWithParams(address,uint256,bytes)": {
        "details": "See {IGovernor-getVotesWithParams}."
      },
      "hasVoted(uint256,address)": {
        "details": "See {IGovernor-hasVoted}."
      },
      "hashProposal(address[],uint256[],bytes[],bytes32)": {
        "details": "See {IGovernor-hashProposal}. The proposal id is produced by hashing the ABI encoded `targets` array, the `values` array, the `calldatas` array and the descriptionHash (bytes32 which itself is the keccak256 hash of the description string). This proposal id can be produced from the proposal data which is part of the {ProposalCreated} event. It can even be computed in advance, before the proposal is submitted. Note that the chainId and the governor address are not part of the proposal id computation. Consequently, the same proposal (with same operation and same description) will have the same id if submitted on multiple governors across multiple networks. This also means that in order to execute the same operation twice (on the same governor) the proposer will have to change the description in order to avoid proposal id conflicts."
      },
      "name()": {
        "details": "See {IGovernor-name}."
      },
      "nonces(address)": {
        "details": "Returns the next unused nonce for an address."
      },
      "onERC1155BatchReceived(address,address,uint256[],uint256[],bytes)": {
        "details": "See {IERC1155Receiver-onERC1155BatchReceived}. Receiving tokens is disabled if the governance executor is other than the governor itself (eg. when using with a timelock)."
      },
      "onERC1155Received(address,address,uint256,uint256,bytes)": {
        "details": "See {IERC1155Receiver-onERC1155Received}. Receiving tokens is disabled if the governance executor is other than the governor itself (eg. when using with a timelock)."
      },
      "onERC721Received(address,address,uint256,bytes)": {
        "details": "See {IERC721Receiver-onERC721Received}. Receiving tokens is disabled if the governance executor is other than the governor itself (eg. when using with a timelock)."
      },
      "proposalDeadline(uint256)": {
        "details": "See {IGovernor-proposalDeadline}."
      },
      "proposalEta(uint256)": {
        "details": "See {IGovernor-proposalEta}."
      },
      "proposalNeedsQueuing(uint256)": {
        "details": "See {IGovernor-proposalNeedsQueuing}."
      },
      "proposalProposer(uint256)": {
        "details": "See {IGovernor-proposalProposer}."
      },
      "proposalSnapshot(uint256)": {
        "details": "See {IGovernor-proposalSnapshot}."
      },
      "proposalThreshold()": {
        "details": "See {IGovernor-proposalThreshold}."
      },
      "proposalVotes(uint256)": {
        "details": "Accessor to the internal vote counts."
      },
      "propose(address[],uint256[],bytes[],string)": {
        "details": "See {IGovernor-propose}. This function has opt-in frontrunning protection, described in {_isValidDescriptionForProposer}."
      },
      "queue(address[],uint256[],bytes[],bytes32)": {
        "details": "See {IGovernor-queue}."
      },
      "quorumDenominator()": {
        "details": "Returns the quorum denominator. Defaults to 100, but may be overridden."
      },
      "quorumNumerator()": {
        "details": "Returns the current quorum numerator. See {quorumDenominator}."
      },
      "quorumNumerator(uint256)": {
        "details": "Returns the quorum numerator at a specific timepoint. See {quorumDenominator}."
      },
      "relay(address,uint256,bytes)": {
        "details": "Relays a transaction or function call to an arbitrary target. In cases where the governance executor is some contract other than the governor itself, like when using a timelock, this function can be invoked in a governance proposal to recover tokens or Ether that was sent to the governor contract by mistake. Note that if the executor is simply the governor itself, use of `relay` is redundant."
      },
      "state(uint256)": {
        "details": "See {IGovernor-state}."
      },
      "supportsInterface(bytes4)": {
        "details": "See {IERC165-supportsInterface}."
      },
      "token()": {
        "details": "The token that voting power is sourced from."
      },
      "updateQuorumNumerator(uint256)": {
        "details": "Changes the quorum numerator. Emits a {QuorumNumeratorUpdated} event. Requirements: - Must be called through a governance proposal. - New numerator must be smaller or equal to the denominator."
      },
      "version()": {
        "details": "See {IGovernor-version}."
      },
      "votingDelay()": {
        "details": "Delay, between the proposal is created and the vote starts. The unit this duration is expressed in depends on the clock (see EIP-6372) this contract uses. This can be increased to leave time for users to buy voting power, or delegate it, before the voting of a proposal starts. NOTE: While this interface returns a uint256, timepoints are stored as uint48 following the ERC-6372 clock type. Consequently this value must fit in a uint48 (when added to the current clock). See {IERC6372-clock}."
      },
      "votingPeriod()": {
        "details": "Delay between the vote start and vote end. The unit this duration is expressed in depends on the clock (see EIP-6372) this contract uses. NOTE: The {votingDelay} can delay the start of the vote. This must be considered when setting the voting duration compared to the voting delay. NOTE: This value is stored when the proposal is submitted so that possible changes to the value do not affect proposals that have already been submitted. The type used to save it is a uint32. Consequently, while this interface returns a uint256, the value it returns should fit in a uint32."
      }
    },
    "version": 1
  },
  "userdoc": {
    "kind": "user",
    "methods": {
      "votingDelay()": {
        "notice": "module:user-config"
      },
      "votingPeriod()": {
        "notice": "module:user-config"
      }
    },
    "version": 1
  },
  "storageLayout": {
    "storage": [
      {
        "astId": 4331,
        "contract": "contracts/Governor.sol:NDCGovernor",
        "label": "_nameFallback",
        "offset": 0,
        "slot": "0",
        "type": "t_string_storage"
      },
      {
        "astId": 4333,
        "contract": "contracts/Governor.sol:NDCGovernor",
        "label": "_versionFallback",
        "offset": 0,
        "slot": "1",
        "type": "t_string_storage"
      },
      {
        "astId": 3310,
        "contract": "contracts/Governor.sol:NDCGovernor",
        "label": "_nonces",
        "offset": 0,
        "slot": "2",
        "type": "t_mapping(t_address,t_uint256)"
      },
      {
        "astId": 89,
        "contract": "contracts/Governor.sol:NDCGovernor",
        "label": "_name",
        "offset": 0,
        "slot": "3",
        "type": "t_string_storage"
      },
      {
        "astId": 94,
        "contract": "contracts/Governor.sol:NDCGovernor",
        "label": "_proposals",
        "offset": 0,
        "slot": "4",
        "type": "t_mapping(t_uint256,t_struct(ProposalCore)67_storage)"
      },
      {
        "astId": 97,
        "contract": "contracts/Governor.sol:NDCGovernor",
        "label": "_governanceCall",
        "offset": 0,
        "slot": "5",
        "type": "t_struct(Bytes32Deque)9240_storage"
      },
      {
        "astId": 2290,
        "contract": "contracts/Governor.sol:NDCGovernor",
        "label": "_proposalVotes",
        "offset": 0,
        "slot": "7",
        "type": "t_mapping(t_uint256,t_struct(ProposalVote)2285_storage)"
      },
      {
        "astId": 2624,
        "contract": "contracts/Governor.sol:NDCGovernor",
        "label": "_quorumNumeratorHistory",
        "offset": 0,
        "slot": "8",
        "type": "t_struct(Trace208)8180_storage"
      }
    ],
    "types": {
      "t_address": {
        "encoding": "inplace",
        "label": "address",
        "numberOfBytes": "20"
      },
      "t_array(t_struct(Checkpoint208)8185_storage)dyn_storage": {
        "base": "t_struct(Checkpoint208)8185_storage",
        "encoding": "dynamic_array",
        "label": "struct Checkpoints.Checkpoint208[]",
        "numberOfBytes": "32"
      },
      "t_bool": {
        "encoding": "inplace",
        "label": "bool",
        "numberOfBytes": "1"
      },
      "t_bytes32": {
        "encoding": "inplace",
        "label": "bytes32",
        "numberOfBytes": "32"
      },
      "t_mapping(t_address,t_bool)": {
        "encoding": "mapping",
        "key": "t_address",
        "label": "mapping(address => bool)",
        "numberOfBytes": "32",
        "value": "t_bool"
      },
      "t_mapping(t_address,t_uint256)": {
        "encoding": "mapping",
        "key": "t_address",
        "label": "mapping(address => uint256)",
        "numberOfBytes": "32",
        "value": "t_uint256"
      },
      "t_mapping(t_uint128,t_bytes32)": {
        "encoding": "mapping",
        "key": "t_uint128",
        "label": "mapping(uint128 => bytes32)",
        "numberOfBytes": "32",
        "value": "t_bytes32"
      },
      "t_mapping(t_uint256,t_struct(ProposalCore)67_storage)": {
        "encoding": "mapping",
        "key": "t_uint256",
        "label": "mapping(uint256 => struct Governor.ProposalCore)",
        "numberOfBytes": "32",
        "value": "t_struct(ProposalCore)67_storage"
      },
      "t_mapping(t_uint256,t_struct(ProposalVote)2285_storage)": {
        "encoding": "mapping",
        "key": "t_uint256",
        "label": "mapping(uint256 => struct GovernorCountingSimple.ProposalVote)",
        "numberOfBytes": "32",
        "value": "t_struct(ProposalVote)2285_storage"
      },
      "t_string_storage": {
        "encoding": "bytes",
        "label": "string",
        "numberOfBytes": "32"
      },
      "t_struct(Bytes32Deque)9240_storage": {
        "encoding": "inplace",
        "label": "struct DoubleEndedQueue.Bytes32Deque",
        "members": [
          {
            "astId": 9233,
            "contract": "contracts/Governor.sol:NDCGovernor",
            "label": "_begin",
            "offset": 0,
            "slot": "0",
            "type": "t_uint128"
          },
          {
            "astId": 9235,
            "contract": "contracts/Governor.sol:NDCGovernor",
            "label": "_end",
            "offset": 16,
            "slot": "0",
            "type": "t_uint128"
          },
          {
            "astId": 9239,
            "contract": "contracts/Governor.sol:NDCGovernor",
            "label": "_data",
            "offset": 0,
            "slot": "1",
            "type": "t_mapping(t_uint128,t_bytes32)"
          }
        ],
        "numberOfBytes": "64"
      },
      "t_struct(Checkpoint208)8185_storage": {
        "encoding": "inplace",
        "label": "struct Checkpoints.Checkpoint208",
        "members": [
          {
            "astId": 8182,
            "contract": "contracts/Governor.sol:NDCGovernor",
            "label": "_key",
            "offset": 0,
            "slot": "0",
            "type": "t_uint48"
          },
          {
            "astId": 8184,
            "contract": "contracts/Governor.sol:NDCGovernor",
            "label": "_value",
            "offset": 6,
            "slot": "0",
            "type": "t_uint208"
          }
        ],
        "numberOfBytes": "32"
      },
      "t_struct(ProposalCore)67_storage": {
        "encoding": "inplace",
        "label": "struct Governor.ProposalCore",
        "members": [
          {
            "astId": 56,
            "contract": "contracts/Governor.sol:NDCGovernor",
            "label": "proposer",
            "offset": 0,
            "slot": "0",
            "type": "t_address"
          },
          {
            "astId": 58,
            "contract": "contracts/Governor.sol:NDCGovernor",
            "label": "voteStart",
            "offset": 20,
            "slot": "0",
            "type": "t_uint48"
          },
          {
            "astId": 60,
            "contract": "contracts/Governor.sol:NDCGovernor",
            "label": "voteDuration",
            "offset": 26,
            "slot": "0",
            "type": "t_uint32"
          },
          {
            "astId": 62,
            "contract": "contracts/Governor.sol:NDCGovernor",
            "label": "executed",
            "offset": 30,
            "slot": "0",
            "type": "t_bool"
          },
          {
            "astId": 64,
            "contract": "contracts/Governor.sol:NDCGovernor",
            "label": "canceled",
            "offset": 31,
            "slot": "0",
            "type": "t_bool"
          },
          {
            "astId": 66,
            "contract": "contracts/Governor.sol:NDCGovernor",
            "label": "etaSeconds",
            "offset": 0,
            "slot": "1",
            "type": "t_uint48"
          }
        ],
        "numberOfBytes": "64"
      },
      "t_struct(ProposalVote)2285_storage": {
        "encoding": "inplace",
        "label": "struct GovernorCountingSimple.ProposalVote",
        "members": [
          {
            "astId": 2276,
            "contract": "contracts/Governor.sol:NDCGovernor",
            "label": "againstVotes",
            "offset": 0,
            "slot": "0",
            "type": "t_uint256"
          },
          {
            "astId": 2278,
            "contract": "contracts/Governor.sol:NDCGovernor",
            "label": "forVotes",
            "offset": 0,
            "slot": "1",
            "type": "t_uint256"
          },
          {
            "astId": 2280,
            "contract": "contracts/Governor.sol:NDCGovernor",
            "label": "abstainVotes",
            "offset": 0,
            "slot": "2",
            "type": "t_uint256"
          },
          {
            "astId": 2284,
            "contract": "contracts/Governor.sol:NDCGovernor",
            "label": "hasVoted",
            "offset": 0,
            "slot": "3",
            "type": "t_mapping(t_address,t_bool)"
          }
        ],
        "numberOfBytes": "128"
      },
      "t_struct(Trace208)8180_storage": {
        "encoding": "inplace",
        "label": "struct Checkpoints.Trace208",
        "members": [
          {
            "astId": 8179,
            "contract": "contracts/Governor.sol:NDCGovernor",
            "label": "_checkpoints",
            "offset": 0,
            "slot": "0",
            "type": "t_array(t_struct(Checkpoint208)8185_storage)dyn_storage"
          }
        ],
        "numberOfBytes": "32"
      },
      "t_uint128": {
        "encoding": "inplace",
        "label": "uint128",
        "numberOfBytes": "16"
      },
      "t_uint208": {
        "encoding": "inplace",
        "label": "uint208",
        "numberOfBytes": "26"
      },
      "t_uint256": {
        "encoding": "inplace",
        "label": "uint256",
        "numberOfBytes": "32"
      },
      "t_uint32": {
        "encoding": "inplace",
        "label": "uint32",
        "numberOfBytes": "4"
      },
      "t_uint48": {
        "encoding": "inplace",
        "label": "uint48",
        "numberOfBytes": "6"
      }
    }
  }
}